:100000000C9434000C943E000C943E000C943E0082
:100010000C943E000C943E000C943E000C943E0068
:100020000C943E000C943E000C943E000C943E0058
:100030000C943E000C943E000C943E000C943E0048
:100040000C943E000C943E000C943E000C943E0038
:100050000C943E000C943E000C943E000C943E0028
:100060000C943E000C943E0011241FBECFEFD8E04C
:10007000DEBFCDBF0E945B000C9466000C940000B4
:1000800017B887E880937A0080E480937C00089515
:100090009093C5008093C40088E18093C1008EE0F6
:1000A0008093C2000895E0ECF0E0908195FFFDCFD1
:1000B0008093C600089587E690E00E9448000E9461
:1000C000400084E090E00E945300FBCFF894FFCF03
:00000001FF
