S016000073657269616C5F6578616D706C652E7372656343
S113000033C0000039C0000037C0000035C0000014
S113001033C0000031C000002FC000002DC000001C
S11300202BC0000029C0000027C0000025C000002C
S113003023C0000021C000001FC000001DC000003C
S11300401BC0000019C0000017C0000015C000004C
S113005013C0000011C000000FC000000DC000005C
S11300600BC0000009C0000011241FBECFEFD8E070
S1130070DEBFCDBF15D01AC0C3CF9093C500809307
S1130080C40088E18093C1008EE08093C20008958B
S1130090E0ECF0E0908195FFFDCF8093C6000895D9
S11300A087E690E0EADF89E6F3DFFDCFF894FFCF3F
S9030000FC
